:020000040800F2
:10000000000B0020D5000008092A0008AD260008D2
:1000100000000000000000000000000000000000E0
:10002000000000000000000000000000E1000008E7
:100030000000000000000000B901000837010008BE
:10004000E7000008E7000008E7000008E7000008F4
:10005000E7000008E7000008E7000008E7000008E4
:1000600000000000F5050008E7000008E7000008B0
:10007000A9040008E7000008E70000088D2A00082E
:10008000E7000008E7000008E7000008E7000008B4
:1000900000000000E70000087D2A0008E7000008D3
:1000A000E7000008E7000008E7000008E700000894
:1000B000E7000008E7000008000000000000000062
:1000C0000348854600F0DEF900480047853C0008FB
:1000D000000B00200448804704480047FEE7FEE785
:1000E000FEE7FEE7FEE7FEE77B2A0008C100000806
:1000F00072B614481449091D01601448144A10448A
:100100001449016014481549096801600F481449F1
:1001100041611449016114490C48144A10440160BA
:1001200013490A48134A1044016013490748134A07
:1001300010440160704701B500F0BAF803BC8E4668
:10014000704700003C000020000B002000E000E0B1
:10015000080D000000000008F80000200000000862
:10016000FFF900000700000000000000180D00006B
:10017000000000FF1C0D00000000FF40200D0000EB
:1001800070470000000000000000000000000000B8
:1001900070470000000000000000000000000000A8
:1001A0000020264A106062B6254826490860BFF341
:1001B0004F8FBFF36F8FFEE72348244A0023016867
:1001C000002915D00360EFF30983103BF0C34446C8
:1001D0004D4656465F46203BF0C3143B75461D60B6
:1001E0008B601B4C2568002D02D08D610025256099
:1001F00072B61168002914D0016062B64F68154CC0
:100200008D697F1C4F6025608B681D681B1DAE4685
:10021000F0CBBB46B246A946A046F0CB83F3098893
:10022000704772B611680160002901D162B6F8E723
:10023000094F044D2F6062B6E0E700007000002017
:100240000000001004ED00E06000002064000020C9
:100250002403002024030020000000080000000008
:10026000026907239A43443A0B4B136000235360FF
:100270009360D360136153619361D36113625362DE
:100280009362D36213635363044B9363D163044B50
:100290001364826070470000FDFFFFFFFFFFFFFF58
:1002A000000000010000000000000000000000004D
:1002B00023490868401C0860224B1A68002A06D0AF
:1002C000521E1A60002A02D11F4B012018601F49DC
:1002D00008680268002A03D01D4B01221A6007E05B
:1002E000001D1C4B1A68904201D11B4B1868086016
:1002F0001A4B1A68002A03D11949086800281BD034
:1003000001B518490868002801D003F0A3FA164B7C
:100310001A68002A0ED003F053FA14480168002925
:1003200008D113480168134A13681348134A9942C5
:1003300000D0026003BC8E46BFF34F8F70470000B1
:10034000A8010020240300200C010020040100204B
:100350000801002094010020980100200C010020D9
:1003600008010020080100200C010020700000207E
:10037000600000206400002004ED00E00000001098
:10038000F0B51FB40646002082B005464024019116
:1003900000901BE0019922460F46304600F061F8BC
:1003A000049A059B801A994110D31046194622469B
:1003B00000F047F8361A8F410197224601200021AC
:1003C000009F00F03EF838184D4100902046641E12
:1003D0000028DFDC019B00982946324607B0F0BDBB
:1003E000D2B201E00270401C491EFBD270470022CD
:1003F000F6E710B513460A4604461946FFF7F0FF24
:10040000204610BD70B50446002903D000202022EC
:10041000012310E0002801D00020C043C046C046A0
:100420000DE02546D5408D4205D30D469540641B11
:100430001D46954040191546521E002DF1DC2146FF
:1004400070BD10B5202A04DB0146203A91400020FF
:1004500010BD914020239C1A0346E340194390406D
:1004600010BD10B5202A04DB0846203AD0400021F8
:1004700010BD0B46D340D0402024A21A914008431F
:10048000194610BD064C0125064E05E0E36807CC71
:100490002B430C3C98471034B442F7D3FFF714FEBB
:1004A000143F0008343F000880B5024800F00DFA00
:1004B00080BDC04628030020B0B50146806A836D28
:1004C000826D5024234206D0D20621D4006D426BA7
:1004D00008469047B0BD01214B021A43826502686D
:1004E000D3681B059B0F1FD1837E002B1CD1136883
:1004F0001B0719D593685B070DD40346583354681E
:100500000C25AC435460FF2402341A68A24309E06E
:1005100000F0DAF9B0BD826D2023134383650346F2
:100520005C33C26D0A431A6000F0CCF9B0BD80B5EF
:10053000806A816D40220A438265C16D04220A43AC
:10054000C26500F0C1F980BD80B5806A00F0BBF9DA
:1005500080BD0000F0B581B005460024009400681D
:100560008168C9071AD18168214A2F32114208D007
:10057000A86D10210143A965E86D01242043E865B9
:100580000CE081681A4A1140012739438160C7484D
:100590000068000205D4687E01280FD1204601B012
:1005A000F0BDC6480068C649FFF72CFF401C00900C
:1005B00000980028EFD00098401EF8E700F036FEC3
:1005C000064628680168C907E8D18168C90704D1CF
:1005D0008168074A11403943816000F027FE811B82
:1005E00028680329EED30168C907EBD1C0E7C046EC
:1005F000E8FFFF7F80B5024800F0F8FB80BDC046F1
:100600008C03002070B5846CC56C6560046D002C93
:1006100002D0446D856D6560046C1C252540012465
:10062000AC40084D2E6826432E60046863608068E5
:100630001028134600D00B46A360102800D01146A6
:10064000E16070BD04000240EFF3108072B6FEE777
:100650007047704770477047F0B589B0002508951E
:100660005422825C012A01D10224E4E00646543679
:1006700001243470026893685B0711D404694B68E5
:10068000022B12D1042004438648844252D184486C
:10069000C0430B68D9430143906A084090624AE026
:1006A000816D20220A438265C4E0079606930426E2
:1006B00034437B4B7B4FBC424DD10F683B40906A2B
:1006C0001843906238025369834389680140764831
:1006D0000840184350610024002F01D4079EA9E070
:1006E000012672483B4607680720820539461140BB
:1006F0006F480293834275D1F0053B46034071D1A8
:100700006A4F3B6893431943014339606B48006863
:100710006B49FFF777FE0C2141430C310891089893
:100720000028DBD0079E0898401E089008980028F3
:10073000F9D17FE00B680024002B7BD55B48016872
:100740005C4A93426AD05C4A93426AD0584A9342C8
:1007500070D1052263E0029605951F27069C27406D
:100760000F2500950397BD40046E0195AC4304949A
:100770000F681F424ED0FB07059D2C4663D1BB0777
:100780005CD47B075CD43B075CD4FB06029C5AD448
:10079000BB066BD47B066BD43B066BD4FB056BD4DA
:1007A0000297BB056AD4029B5B0569D4029B1B05BB
:1007B00068D4029BDB0467D4029B9B0466D4029B33
:1007C0005B0465D4029F3B04009C059D3BD4FB0366
:1007D00061D4029B9B0360D4029F7B03DB1712242E
:1007E0001C4019E03348029B834203D130063B464C
:1007F000034008D03048029B834200D06EE7B0052A
:10080000074000D06AE7294F3B68934319430143EF
:10081000396063E77B00DC0E059D14E0032292053E
:1008200001E00322D2051140072292050368934399
:10083000591801603570204609B0F0BD012402E06E
:10084000022400E00324039EB440049B1C4304667E
:10085000069B9B08C069984200D833E70198C043C3
:10086000936A0340B800000FB04029E70524EAE787
:100870000624E8E70724E6E70824E4E7092408E07B
:100880000A2406E00B2404E00C2402E00D2400E01E
:100890000E24029FC0E71024FBE71124F9E7C046AD
:1008A000FFFF07000400008000FFFF07082701404A
:1008B000001000B0004000B8002000B40400002088
:1008C000400D0300704770477047F0B585B004468F
:1008D000006805680227294639404A424A4146686D
:1008E000314639404B424B41134303950DD1A06D26
:1008F000C00604D40120C002A16D0143A1652046B9
:10090000FFF7A7FE20680760039D019701270422D7
:100910003240514251416A073A462B4600D50A46B9
:1009200079020291012A049709D1082232405142EA
:1009300051411A073A4600D50A46002A2FD12146CE
:100940005831A26DD20603D40A68029B1A430A608A
:10095000C2681205920F1BD1A27E002A18D102682C
:10096000120715D58268520708D442680C239A43AF
:100970004260FF2202320868904306E0A06D202109
:100980000143A16521465C31E06D012202430A600A
:100990002046FFF797FF20680C210160039B80250C
:1009A00032462A40514251411A06049A00D50A465D
:1009B000002A0AD101200004A16D0143A16520464F
:1009C00000F06AF9039B2068056001252F0232467A
:1009D0003A4051425141DA05049A00D50A46002AAC
:1009E00009D16804A16D0143A1652046FFF732FEDD
:1009F000039B206807603246029F3A4051425141B2
:100A00003B42049A00D00A46002A09D1A804A16DED
:100A10000143A1652046FFF71EFE039B2068076087
:100A2000102732463A4051425141DA06049A00D525
:100A30000A46002A13D1216B002902D0C168890718
:100A40000CD0A802A16D0143A165E06D0199084396
:100A5000E0652046FFF738FF039B206807606D03C1
:100A60002E4070427041990400D5049004980028EB
:100A700004D12046FFF7ECFD2068056005B0F0BD0D
:100A8000F0B587B0044600200690002C5DD005909C
:100A9000A06D002807D125465435204600F0FEF809
:100AA00000202870E06501273D072668B068C00077
:100AB00012D4B068714901402943B16070480068A0
:100AC0007049FFF79FFC4000801C069006980028A4
:100AD00002D00698401EF8E7B068284208D1A06D01
:100AE00010210143A165E06D012105910843E065F6
:100AF000B06804210140A26D102002405118A26D7F
:100B000025D161490A40921CA265B268D20773D10F
:100B100027462037226B531E9A411303A268257E75
:100B2000AD031543627ED2032A43A17E029149039D
:100B30001143E2680A431A430121CD072369002BC0
:100B40000491039507DAAB4306E0012093E00243EA
:100B5000A26538468FE04B051A43397B4B0013439F
:100B6000397801290ED10299002908D0A16D2022DF
:100B70000A43A265E16D049A1143E16502E004991C
:100B800009040B43626A002A05D0072189010A4043
:100B90001A43A36A1343F1683C4A0A401A43F260BD
:100BA00003218D07636819462940E26C0A43397FA7
:100BB00001290BD1216C676C0197A76C02970A433E
:100BC00001990A4302990A4304990A433169304F53
:100BD0000F401743376103998B420DD0AB420BD0C6
:100BE000049989078B4207D00F2189040B40294AB9
:100BF00015688D43E9181160716907229143676B8D
:100C000039437161716970239943A36B1B010B43D5
:100C100073612569012359058D4206D0002D13D13A
:100C2000194DF335B16A29430DE0B16AE1698900D4
:100C30001C311C250D40144904900846F330A8408F
:100C4000216E01430498B16271691140B94209D122
:100C50000020E065A06D0121014302208143A165D0
:100C6000059808E0A16D014302208143A165E06D74
:100C70001843E065184607B0F0BDC046E8FFFF6FB7
:100C800004000020400D0300FDFEFFFF0102FEFFF7
:100C900002FCFF1F0827014070470000F0B587B035
:100CA00004460026069605960068224988423ED1F1
:100CB000012738052049CA680243CA60CA68024051
:100CC000019201980868384308600868384001902C
:100CD000049670200290019803250395052000904A
:100CE000000702A900F0B0F92803144D2862202063
:100CF000B9023A028023124F2F60009F6F60AE60EE
:100D0000EE602B616A61A961E861284600F0DCF8B9
:100D1000002801D0FFF798FCAC6225650C24002167
:100D200020460A4600F012FB204600F003FB07B005
:100D3000F0BDC04600240140341002408C03002066
:100D400008000240F0B581B00E46044601688B6889
:100D500002205B073DD400925422A25C012A38D0C5
:100D60002746543701253D70C868C0070AD18868F6
:100D7000C00704D08868184A0240901C8860C86880
:100D80002843C8602046FFF7E5FB002821D1A06D6D
:100D90001249014028020818A0650020E06521687A
:100DA0001C220A603870206D0D4A0E4B0E4DC56234
:100DB000036342634A68102313434B604031324659
:100DC000009B00F0FDF821688A68034B13401A1D50
:100DD0008A6001B0F0BDC046E8FFFF7FFEF0FFFF74
:100DE0002F05000849050008B9040008F0B585B0D2
:100DF0003449091F0E6802681368042502932B40CA
:100E00005F425F410490046C1C23234029469940B3
:100E10000C46039634406042604138432FD0019223
:100E200001210227029E30463840444244419F40FF
:100E3000039D2F420A4600D02146049804462434DC
:100E4000002929D00820064077427741DD40280755
:100E500000D53A46002A33D1019A10680E21884302
:100E60001060012529469940164802680A4302602D
:100E70000498C563002121706570416B1DE0106806
:100E8000800602D41068A84310600E4A1068084318
:100E900010600498016B10E0019B1968890605D465
:100EA0001A680A218A431A600121617000212170A9
:100EB000044A116839431160C16A002900D088478B
:100EC00005B0F0BD04000240F0B587B0002847D05F
:100ED000044601462431022006914870276838688C
:100EE000324901403960324E30468030A06431488A
:100EF000381814252946FFF785FA800081192064E7
:100F000005916164F8B208382946FFF77BFA1F2281
:100F10000240012108469040E064A36826460C3652
:100F200064CE0196A6690296E6690396266A04963F
:100F30001A432A43019D2A43029D2A430E460399E0
:100F40000A4304990A43396811433960B1031A4AC4
:100F50008B4207D1002305990B606360106019E094
:100F6000012021E061683F230B40059D2B6010604C
:100F7000481E03280DD8581E810053180021D96738
:100F80000321014035468D400C4805607C33BC325E
:100F900002E000231A461D460020E06323656265D7
:100FA000A565069908704E7007B0F0BD0F80FFFF71
:100FB00000080240F8FFFDBF8408024044090240D7
:100FC000F0B581B005462420285C012801D1022417
:100FD00036E028462430012404704678012E12D1D0
:100FE000022444700024EC63286807680126B74394
:100FF00007602846FFF706FB286801682A6B002A6D
:1010000006D00E2209E0002101708020E86317E07D
:1010100004229143016002680A21114301603102F8
:101020006A6C1368DB0302D513680B4313602A6DE7
:10103000002A02D013680B4313600168314301603A
:10104000204601B0F0BD0000F0B58CB00B916A4AAB
:10105000904201D0052200E0032200920B990F6814
:10106000002F00D1C5E001230026354602930996E2
:1010700008960A90591E029C07918C40274000D187
:10108000A7E0069505960B9A516803260D46354054
:101090006A1E012A04911BD8032209998A400A98E2
:1010A000806890430B9EF6688E4006430A988660DF
:1010B0000498C006C00F079988400A9E7668A64328
:1010C00006430A984660D4430A98089949000BE001
:1010D000324609998A40D443032D05D109990391D9
:1010E0003546059E049923E0C268019422400B9C7A
:1010F000A4688C401443C460022D039115D11C20B8
:10110000059E30400F2282400799CC08A4000A9D1A
:101110002C19256A95430B990A6982402A43226259
:101120000A98496803250D4001E0059E0499019C39
:10113000039A9540026822402A4302608A03920F74
:10114000069D46D0182028400F2585400322079988
:1011500091430A9A294C6618346EAC4360360525D3
:101160002D07AA4208D0274DAA4207D0264DAA42F1
:10117000009D04D1022502E0002500E00125854004
:10118000254335601D4802680B984068C40201D5AC
:101190003A4300E0BA43059E069D184C22606268FF
:1011A000840201D53A4300E0BA43144C6260144A09
:1011B0005268840301D53A4300E0BA43104C6260A0
:1011C0002268C00301D53A4300E0BA430C480260EC
:1011D0000A980B9A17683A46DA40361D08355B1CA8
:1011E0000999891C09910899491C0891002A00D085
:1011F00040E70CB0F0BDC046000C005000180240A3
:1012000080180240000400500008005042690B465C
:1012100093430A401104C91881617047002A01D024
:10122000182200E02822815070470000064800681C
:101230007047C0460348007803490A6810180860E0
:101240007047C0460C000020FC08002010B50124A7
:10125000200207490A6802430A60032000F00AF8E6
:10126000002802D100F050F80024204610BDC046EE
:1012700000200240F0B587B001900127B8041E4954
:101280000A6802430A60096801400391039803A8B1
:1012900002A900F01BFA069C00F030FA174E18491C
:1012A000184A32600025B561B560F1603561611E94
:1012B0008C41A0404749FFF7A5F8401E70603046BA
:1012C00000F080FD002814D10C4800F0BDFD00287E
:1012D0000FD1162000F02EF801980328384608D8C0
:1012E0001620019C21462A4600F030F8F64804609A
:1012F000284607B0F0BDC046401002404C04002014
:10130000E70300000048014082B00948416801221B
:101310001143416041681140019101991107026830
:101320000A430260006808400090009802B07047CD
:101330003C100240002805D41F21084001218140B3
:10134000014801607047C04600E100E0002805D474
:101350000322034693430C4A9A1806E00F220240E8
:10136000083A03239A43074BD2188007C00E89011D
:10137000C9B28140FF23834010689843084310603E
:101380007047C0461CED00E000E400E0F0B581B01D
:1013900003256902704E32688A430243326001219C
:1013A0004A020024904212D1DB480268706940056D
:1013B0000DD58F02062050430649FFF723F8801C05
:1013C000401E03D071693942FAD100E02C46204614
:1013D00001B0F0BD40420F00F0B585B00446807802
:1013E00080075C4F01D4002548E001221107386BCB
:1013F0000840039006D1386B08433863386B0840C7
:1014000004900498029101921602534F38683043B9
:101410003860FFF70BFF05463868304207D1FFF709
:1014200005FF401B0228F7D903254A4F1FE003257B
:1014300029024848006D084011D0616A88420CD0EA
:10144000444B186D019909041A6D0A431A651A6D07
:101450008A431A65414908401865C0076CD13D4F61
:10146000386D3E490840616A01433965002503989B
:10147000002803D1386B0299884338632068C1077C
:1014800005D0B96C0322914362680A43BA64C1066D
:1014900006D503218902BA6C8A43A1681143B96455
:1014A000810506D503218904BA6C8A436169114319
:1014B000B964410506D503210905BA6C8A43A169BF
:1014C0001143B964810606D503210903BA6C8A4326
:1014D000E1681143B964012142040CD5BA6C204B78
:1014E0001A40E6693243BA645A1C964203D10A0490
:1014F0003B6813433B6082020BD58A05BB6C934368
:10150000266A3343BB64964203D10A063B68134301
:101510003B6000050DD5880303229203BB6C934307
:1015200022691343BB64824203D108043968014332
:101530003960284605B0F0BDFFF778FE0646604FDB
:101540000448006D80078AD4FFF770FE801BB84204
:10155000F6D96AE70C10024000700040FFFCFFFF64
:10156000FFFFFF3FF0B583B00D460121002800D1F9
:10157000A3E0019102906048006807242040A8423F
:1015800013D25D490868A043284308604C4EFFF71A
:101590004DFE0746584800682040A84205D0FFF796
:1015A00045FEC01BB042F5D986E0029B1868810752
:1015B0007A4E0CD5410703D5210332680A433260C5
:1015C0000F21090232688A43996811433160C007CC
:1015D00018D1494800682040A84228D946490868DF
:1015E000A04328430860364FFFF720FE06464248D6
:1015F00000682040A8421AD0FFF718FE801BB842AE
:10160000F5D959E0586803282FD8810001A2515814
:10161000624A8F4625160008711600087B160008DE
:101620008516000811460839096849052CE0029A18
:1016300010784007594D05D5200329688143D068AB
:101640000843286000F06CF8296889093C220A40A8
:101650001C4989581F220A40D0402F4908601A4867
:101660000068FFF707FE014627E04C4A516D0AE08B
:10167000114608390968890306E0114608390968E6
:10168000890101E0916D8907019916D51168A1437F
:10169000014311600A4FFFF7C9FD06463F48006845
:1016A0003821014002984068C000814291D0FFF784
:1016B000BDFD801BB842F1D90321084603B0F0BD3F
:1016C00088130000683E000810000020B0B5072213
:1016D0000260324B1C68144044600F2424021D68D1
:1016E0002540856014031B682340C36002480068DE
:1016F00010400860B0BDC0460020024006480068A7
:1017000026490968890A1C220A40044989581F226F
:101710000A40D0407047C04604000020A83E0008A0
:1017200010B51E4C20688006400F06D02268382174
:101730000A401B48082A07D110BD083C20688004D5
:10174000410F1848C84010BD22680A40102A15D120
:10175000616803220A40032A00D0124861684906E2
:10176000490F491CFEF74EFE61684904490E484383
:101770006168490F491CFEF745FE10BD206808400E
:10178000202802D10120C00310BD2068084018287D
:1017900001D0002010BD7D20000210BD08100240C5
:1017A00000127A000024F400F0B587B0012500286B
:1017B00000D1D6E1049505900078C007FC4F2AD0EF
:1017C000B868F96803252A468A4338210140102069
:1017D0004840821850425041082914D0002812D1A4
:1017E00005984268012001048A4208D005231B04A1
:1017F0009A4200D028E182043B6813433B603A6878
:101800000A433A6029E13868800304D505984068A6
:10181000002800D188E00598007880073CD405981E
:101820000078000768D4059A1078400771D4D4690D
:10183000002C00D194E1B86838210140102900D073
:10184000DAE0012C70D0F86803210140059B1A6A88
:10185000914269D1702101405A6A914264D17F213D
:10186000090201409A6A120291425DD11F21490486
:101870000140DA6A914257D107214A0602401C46CC
:101880001B6B9A42049D00D06BE149070840616BD5
:10189000884200D164E164E1B96838200840102131
:1018A0004140FA680326324002235340CA1851428D
:1018B00051410125AC02002838D0002936D13868C2
:1018C000059AD168002900D1D5E00721C9028843D3
:1018D0001169014339602802396801433960FFF713
:1018E000A5FC05463868204200D0D5E0FFF79EFCF5
:1018F000401B0228F6D9CDE0B868382101401829EC
:101900003CD1386E80078ED50598806900288AD131
:101910000AE0B86838210140202946D1F86D8007D7
:1019200085D59068002882D1049D1AE1396821424A
:10193000059B03D0D968002900D112E17F2109025B
:101940007A688A43596909021143796000280DD1E8
:101950000720C00239688143186908433860386835
:101960008004400F9849C140984801609848006839
:10197000FFF780FC002800D0F3E050E7386E0599AF
:101980008969002900D19CE0012108433866FFF7EE
:101990004DFC0646386E800700D544E7FFF746FC4D
:1019A000801B03250228F5D9DBE001200390010705
:1019B000F86B0840029006D1F86B0843F863F86BA7
:1019C000084006900698019182480068C0052AD414
:1019D000039804027F49086820430860FFF726FC4B
:1019E00006467C48006820421DD1FFF71FFC801B83
:1019F00003250228F5D9B4E00125290638680491A9
:101A000088433860FFF712FC0646022C4ED103953E
:101A10006C063868204273D0FFF708FC801B032552
:101A20000228F6D99DE0059880686B4C012806D005
:101A3000052800D098E0F86D04210143F965F86DA0
:101A400003990843F86599E03B688B433B60810448
:101A50003B688B433B60002A44D04404FFF7E6FB1D
:101A600006463868204200D0D5E6FFF7DFFB801B32
:101A70006428F6D975E0290288433860FFF7D6FB61
:101A800005463868204200D1C9E6FFF7CFFB401B6E
:101A90000228F6D9354664E07F2000027968814348
:101AA00005984069000208437860B8E66C0638681B
:101AB000204251D0FFF7BAFB801B03250228F6D93C
:101AC0004FE0012188433866FFF7B0FB0646386EC9
:101AD000800700D4A7E6FFF7A9FB801B0325022897
:101AE000F5D93EE04404FFF7A1FB064638682042E2
:101AF00000D190E6FFF79AFB801B6428F6D930E00E
:101B0000F868374901400598026A456A836AC66ADF
:101B10000196066B0296406B0A432A431902114351
:101B2000019A1143029A11430143F96038680499FC
:101B30000843386003980007F9680143F960FFF72C
:101B400075FB0646386820420AD1FFF76FFB801B01
:101B500003250228F6D904E0F86820490140F9601D
:101B60000025284607B0F0BDF96D039A9143F96549
:101B7000F96D04229143F96500280CD0FFF756FB5C
:101B80000646F86D800715D4FFF750FB801B032530
:101B9000A042F6D9E5E7FFF749FB0646F86D800756
:101BA00008D5FFF743FB801B0325A042F6D9D8E7F1
:101BB0000010024002980028059A00D037E6F86B22
:101BC00001998843F86332E60024F4000400002001
:101BD000100000200070004088130000FCFFFEEEA3
:101BE0008C80C111F0B585B000280CD004460546A4
:101BF0005C3541208600606A002806D00020206104
:101C00002046143006E0012064E06068B04203D052
:101C100020461C30002101600027A7626878002858
:101C200004D100202870204600F058F802200495C6
:101C30000190687020680168402291430390016020
:101C4000E168254A012591422A4600D33A4612030B
:101C5000ED020D430F2738020290854201D0002586
:101C6000A5626568A768354021239B023B405B194C
:101C70002569019805401D436069012318402843E8
:101C8000FC36A7693E400643E069382505403543E8
:101C9000206A802606402E435803A56A0540354336
:101CA000039E3560380C04250540029801400A4324
:101CB0002A43606A102101401143606B08220240F0
:101CC0000A437260D802F1698143F1610020206605
:101CD00004994B7005B0F0BD0107000070B586B0E7
:101CE00000681B49884230D101210A031948C368A2
:101CF0001343C360C36813400193019A02680A4307
:101D0000026002680A400192019901680225294394
:101D1000016000682840019001980026059604960D
:101D2000039602950320C00201900520000701AC34
:101D30002146FFF789F90596049603960295082037
:101D4000019005482146FFF77FF906B070BDC046F7
:101D500000300140341002400004005070477047CA
:101D60007047000070B53C22825C012A01D102203C
:101D700070BD02463C320223537000684568836898
:101D8000454CA04201D02E4604E00F263605B5434F
:101D90004E682E437025AE430D68354345600125DE
:101DA000AE07B04204D0A04202D03C4CA04204D1C5
:101DB0008024A34389681943816000201070557006
:101DC00070BDC046B0B500281FD0044605463C355E
:101DD0006878002804D100202870204600F018F808
:101DE0000220687001CC214600F058FE01202873C3
:101DF000A870E87028716871A871E871287268721B
:101E0000A872E87268700020B0BD0120B0BD00006B
:101E100010B582B001218A070068904210D10948AC
:101E200002680A43026000680840019001980F248C
:101E3000002120460A46FFF789FA2046FFF77AFA82
:101E400002B010BD3C10024010B53D21415C01299B
:101E50001BD101463D3102220A700168C868012287
:101E60001043C8609007814205D00B48814202D0E0
:101E70000A4881420BD18868094B03400020062B99
:101E800002D01404A34202D110BD012010BD086885
:101E900010430860002010BD002C014000040040E9
:101EA00007000100F0B53C22825C012A01D102202A
:101EB000F0BD02463C32022353700468A0684B4BCD
:101EC0000340A3600D6800234F2D1EDC1F2D37DD5E
:101ED000202D39D0302D37D0402D00D083E0206A1E
:101EE000256A0126B5432562A569F026B543CE686B
:101EF00036012E43A6610A25A843496801432162A1
:101F0000A0683B490140473167E06F2D24DD012087
:101F10004603B5423CD00003854218465FD0702D81
:101F200061D1FF200002A568854348688E68C968B2
:101F30000643080230432843A060A068772135E0BB
:101F4000002D01D0102D4ED1A068294901400D432C
:101F500007202843A06041E0502D29D0602D42D1B8
:101F6000206A1025A84320620F200003A56985433D
:101F7000C86800032843256AA061A02085434868FB
:101F8000000128432062A06819490140673124E01C
:101F9000FF252D02A668AE434D688F68C9682F43A0
:101FA000090239433143A1608003A168014314E071
:101FB000206A256A0126B5432562A569F026B54346
:101FC000CE6836012E43A6610A25A843496801431D
:101FD0002162A068064901405731A160184613707C
:101FE00001215170F0BD0120F9E7C0468800CEFF05
:101FF00088FFCFFF70470000B0B504460068016954
:102000008907554D17D5C168890714D52946FE3172
:102010000161012121778069800703D02046FFF705
:10202000E9FF05E0204600F099F8204600F040F96D
:102030000020207720680169490718D5C168490741
:1020400015D52946FC31016102212177806980057F
:10205000800F03D02046FFF7CDFF05E0204600F0BB
:102060007DF8204600F024F90020207720680169DF
:10207000090717D5C168090714D52946F831016148
:1020800004212177C069800703D02046FFF7B2FF03
:1020900005E0204600F062F8204600F009F9002033
:1020A000207720680169C90618D5C168C90615D509
:1020B0002946F031016108212177C0698005800F30
:1020C00003D02046FFF796FF05E0204600F046F8D3
:1020D000204600F0EDF80020207720680169C9074C
:1020E00009D0C168C90706D02946FF3101612046E1
:1020F00000F056F920680169090609D5C16809068A
:1021000006D52946803101612046FFF728FE206868
:102110000169C90507D5C168090604D505612046CE
:10212000FFF71CFE20680169490609D5C168490608
:1021300006D52946C0310161204600F05BF92068D0
:102140000169890607D5C168890604D5E0350561AE
:102150002046FFF705FEB0BDFFFEFFFF7047000001
:1021600070B505463C20285C012801D1022070BDD5
:102170000C462E463C36012030700221CA41052A09
:102180006DD8C0467A441279520097440211233226
:1021900044532868214600F0C9FC28688169082258
:1021A0000A438261816904229143816121690FE0C0
:1021B0002868214600F0F6FC0121CA0228688369DC
:1021C00013438361890282698A438261216909021A
:1021D000183040E02868214600F01EFD2868C169DB
:1021E00008220A43C261C16904229143C161216985
:1021F0000FE02868214600F04DFD0121CA02286841
:10220000C3691343C3618902C2698A43C2612169F8
:1022100009021C301FE02868214600F06BFD286889
:10222000416D08220A434265416D04229143416594
:1022300021690FE02868214600F08AFD0121CA02C9
:102240002868436D134343658902426D8A434265A2
:1022500021690902543002680A430260002000210B
:10226000317070BDB0B500281FD0044605463C351E
:102270006878002804D100202870204600F017F864
:102280000220687001CC214600F008FC0120287370
:10229000A870E87028716871A871E8712872687276
:1022A000A872E87268700020B0BD0120B0BD704710
:1022B0007047000070B502463E32002912D00C1F54
:1022C0000223DC41032C19D8A50001A67559AF469D
:1022D000E1220008F1220008F5220008F922000896
:1022E000551C0CE01378012B16D1022313701CE04F
:1022F000951C04E0D51C02E0151D00E0551D2D784D
:10230000012D09D1032C09D87C4424796400A74409
:102310000107090B537008E0012070BD537104E000
:10232000937002E0D37000E013711F22114001226C
:1023300013468B400168086A98430862086A18438C
:102340000862124881420DDD1148814205D0284BB8
:10235000994202D00F4B994213D1D3034C6C1C43CA
:102360004C6403E09007814202D00B48814208D1BF
:1023700088680A4B03400020062B06D01404A342B1
:1023800003D0086810430860002070BDFF2B014097
:10239000002C0140004401400004004007000100FF
:1023A000B0B584B004460D48028843888088C1B225
:1023B000000ADDB20095019002910120000310187F
:1023C000010AD2B21B0A06A001F0C6FC2068084927
:1023D000884201D1FEF72EFF04B0B0BD18000020E6
:1023E00025632563256325632563256300000000BD
:1023F000004801407047B0B58421415C012901D1FA
:10240000022111E0024684322421516001680B68E8
:102410000C680125AC430C606C07A3430B600021E2
:1024200041661170202050600846B0BD70B504466A
:102430008420205C012801D1022070BD254684350E
:102440002420686020680668026801239A430260BD
:102450002B7007225206836893430B438360204608
:1024600000F0ACFC20680660002028702021696024
:1024700070BD70B504468420205C012801D1022083
:1024800070BD25468435242068602068066802688F
:1024900001239A4302602B700722520783689343FB
:1024A0000B438360204600F089FC20680660002012
:1024B00028702021696070BDB0B500282FD0044677
:1024C000054684356868002804D10020287020461D
:1024D00000F028F824206860206801680125A943DD
:1024E0000160204600F022FD012819D0A06A0028D2
:1024F00002D0204600F088FC0920C00221684A680A
:1025000082434A6088682A229043886008680122D2
:1025100002430A60204600F0D3FC054600E0012596
:102520002846B0BDB0B590B004460BA81421FDF705
:102530005EFF01A808302021FDF759FF20682349DC
:10254000884222D0224988423DD1002402940125AC
:10255000019501A8FEF740FF002801D0FEF774F8AE
:10256000A803C149CA680243CA60CA68024000920F
:102570000098086802221043086008681040009024
:10258000C0200B900098BA4814E001246004B649BA
:102590008A6802438A608A6802400092009808684C
:1025A000204308600868204000900C200B900098A1
:1025B000052000070F9400210E910D9102210C912E
:1025C0000BA9FEF741FD10B0B0BDC046004400406D
:1025D00000380140F0B585B004930746882038588C
:1025E000202859D10E460125002956D0002A54D062
:1025F00001252903B868884204D1F00702D0386960
:1026000000284AD03C46543400200290E063212048
:10261000606315460191FEF709FE039065802580F1
:10262000B8680199884227D138690028314600D01E
:102630000021029100281FD106461DE00498009059
:102640008021002538462A46039B00F063FD0028C0
:1026500020D1002E04D0307839688862761C08E0DA
:10266000029A10881049084039688862921C0292C8
:102670002E466088401E608060880028DED1049865
:1026800000904021002538462A46039B00F042FD79
:10269000002805D0032500E00225284605B0F0BD3E
:1026A00020206063F9E7C046FF010000FEE700005C
:1026B000F0B583B03C222948002181542C2201240A
:1026C000845420228154C164062201634263C461A0
:1026D000817601830422224BA502E607A70788C062
:1026E000016041608660C2602A468032C261056234
:1026F0000291019100910838FEF7C2F9002801D03B
:10270000FDF7A2FF01941748009014486946FDF7B1
:10271000A3FF002801D0FDF797FF134800900F4852
:102720006946FDF799FF002801D0FDF78DFF0F489E
:1027300000900A486946FDF78FFF002801D0FDF799
:1027400083FF0B48009005486946FDF785FF002888
:1027500001D0FDF779FF03B0F0BDC046280300208B
:102760000024014010000010200000144000001858
:10277000002000B410B582B009480168012211435D
:102780000160006810400190019809240021204652
:102790000A46FEF7DBFD2046FEF7CCFD02B010BD79
:1027A00038100240F0B58BB000240A942E4801681E
:1027B00004221143016001681140059105990168E7
:1027C00001252943016001682940059105990268A6
:1027D00002210A4302600068084005900598052020
:1027E0000707019738460E4600912A46FEF716FD68
:1027F0008021029138462246FEF710FD1B484021F9
:1028000003912A46FEF70AFD194830210491224619
:10281000FEF704FD0994274608950795069606AC31
:10282000019E30462146FEF70FFC0997009808905C
:1028300007950298069030462146FEF705FC0326D0
:102840000996089507950398069008482146FEF7D3
:10285000FBFB0996089707950498069004482146C3
:10286000FEF7F2FB0BB0F0BD341002400008005040
:102870000004005010B50F4800210F4A0823072418
:10288000016241628162C4620163436323024124A5
:10289000A40014C0FC34016043608160C160046125
:1028A00041610838FFF79EF9002801D0FDF7CCFE02
:1028B00010BDC046E803002000300140B0B58EB026
:1028C00000240D940C940B94099408940794684682
:1028D0001C21FDF78CFD704884611E493F220125B3
:1028E000AB07036042608460C1600461FFF76AFA6D
:1028F000002801D0FDF7A8FE28030A9066480AA91F
:10290000FFF7D0FA002801D0FDF79EFE6248FFF7DE
:10291000A9FC002801D0FDF797FE0994202007901C
:102920005D4807A9FFF71EFA002801D0FDF78CFECD
:10293000049402947C2001906020009056486946DF
:102940002246FFF70DFC002801D0FDF77DFE0EB0FA
:10295000B0BDC046E703000080B500F089FC80BD33
:1029600010B5184C0C200021174AE123DB020CC4DF
:1029700021606160A160E060083C204618301421AD
:10298000FDF735FD2046FFF797FD002801D0FDF744
:102990005BFE0C480021FFF76CFD002801D0FDF71D
:1029A00053FE08480021FFF741FD002801D0FDF744
:1029B0004BFE0448FFF71FFD002801D0FDF744FE41
:1029C00010BDC046E40400200038014010B50C4C96
:1029D0000C2000210B4AE123DB020CC42160616062
:1029E000A160E060083C204618301421FDF7FFFC90
:1029F0002046FFF761FD002801D0FDF725FE10BD40
:102A00007805002000440040FEE7F0B593B005AC27
:102A1000201D1821FDF7EBFC01267002FEF7B6FC25
:102A200070071290700611907004109008200F909B
:102A300000270E9702250D950C9540200A900997C6
:102A40003002089005952046FEF7AEFE002803D020
:102A5000EFF3108072B6FEE704970397072001900A
:102A6000029501A82946FEF77DFD002803D0EFF36B
:102A7000108072B6FEE713B0F0BD704780B5024813
:102A8000FFF7BAFA80BDC0464C04002080B502486A
:102A9000FFF7B2FA80BDC04698040020B0B50568C3
:102AA00001229407A04205D0C04B984202D01C4B93
:102AB000984204D170239D434B682B4300E02B4682
:102AC000184DA84206DCA0420DD0154CA0420AD0F9
:102AD000154C06E0B54CA04205D0B54CA04202D042
:102AE000B44CA0421AD103242402A343CC681C4353
:102AF00080239C434B69234303608B68C3620B684C
:102B00008362AA4B984205D0A94B984202D0A94BA8
:102B1000984201D1096901634261B0BD1C46E7E7F3
:102B200000040040FF2B014000200040F0B581B0C0
:102B3000026A01239A430262026A02239A438E6860
:102B4000164344680A6800928369984FB84205D0DA
:102B5000974DA84202D0974DA84206D10C25AE430E
:102B6000CD6804229543354300E03546B84205D090
:102B70008F4A904202D08F4A904207D1032212021C
:102B800094434E698A692643164300E02646466010
:102B90003F4A1340009A13438361496841630562C9
:102BA00001B0F0BDF0B581B0026A10239A43026211
:102BB000026A20239A438B681E01164344680A6800
:102BC00000928269794FB84201D0354606E0C025AF
:102BD000AE43CD682D0140239D433543B84205D017
:102BE000734B984202D0734B984208D103239B0247
:102BF0009C434B698E699B002343B4001C43446093
:102C00003B4B1A40009B1B0213438361496881635D
:102C1000056201B0F0BDC046F0B581B001221302DB
:102C2000046A9C4304625202036A93438A68160250
:102C30001E4344680A680092C3695C4FB84201D0E1
:102C4000354607E00325AD02AE43CD682A020F4D9D
:102C500015403543B84205D0554A904202D0554AF6
:102C6000904208D10322120394434A698E691201EB
:102C70002243340114434460054A1340009A13432D
:102C8000C3614968C163056201B0F0BD00FBFFFF8D
:102C90008CFFFEFFF0B581B001221303046A9C4350
:102CA0000462036A44688D6800950E68C5693F4FE9
:102CB000B84205D03E4FB84202D03E4FB84205D18F
:102CC0009703BC434F69BF01274300E02746476095
:102CD000074C254034022C43C46149680164510308
:102CE0008B43009909031943016201B0F0BDC0464E
:102CF000FF8CFFFEF0B581B0144F7037026A3A4086
:102D00000262026A44688B6800930D68466D274B27
:102D1000984205D0264B984202D0264B984204D1C7
:102D20003C404B691F02274300E027464760074BA2
:102D30001E402E43466549688165012149048A4346
:102D4000009909041143016201B0F0BD8FFFFEFF3D
:102D5000F0B581B001221305046A9C430462036A42
:102D600044688D6800950E68456D104FB84205D0D7
:102D70000F4FB84202D00F4FB84205D19704BC4361
:102D80004F69BF02274300E0274647600A4C2540B1
:102D900034022C4344654968C16551058B43009951
:102DA00009051943016201B0F0BDC046002C014085
:102DB0000048014000440140FF8FFFFEF0B581B0A4
:102DC00005466835416E002914D000688668806821
:102DD000400F0B49095C0B4F385CC000FDF712FB3C
:102DE00004463001400F0649095C385CC000FDF71D
:102DF00009FB01E00124204628806C8001B0F0BD71
:102E0000F83E0008F03E0008B0B5816ACA0707D056
:102E10000122520403685C689443C26A22435A60E8
:102E20008A0707D50122120403685C689443026B89
:102E300022435A604A0707D50122920403685C685E
:102E40009443426B22435A600A0707D50122D203FA
:102E500003685C689443826B22435A60CA0607D5B4
:102E60000122120303689C689443C26B22439A6058
:102E70008A0607D50122520303689C689443026CBA
:102E800022439A604A0610D501221305026854684D
:102E90009C43456C2C4354609D4206D103235B0543
:102EA00054689C43836C23435360090607D5012172
:102EB000C904026853688B43C06C18435060B0BDAE
:102EC00070B582B00546902000242C50FEF7AEF974
:102ED00006462868016809070BD5134800900120B1
:102EE000410500222846334600F014F900280ED18F
:102EF0002868006840070CD50B4800900120810528
:102F000000222846334600F005F9002801D00324AA
:102F100007E028468430202141608160EC6604701F
:102F20002C67204602B070BDFFFFFF01F0B581B0F5
:102F30000446026810686A490140A0682369034397
:102F400060691843E3691843084310600327380396
:102F500051688143E06808435060A169614DAA420D
:102F600002D0206A084300E0084691685E4E0E4099
:102F700006439660D06A0F218843616A0843D06295
:102F80005A4882420BD0AA420BD05948824210D1F3
:102F9000584800688007000F574E36580AE0002650
:102FA00008E054480068000A0C260640524886593A
:102FB00000E010262046683000905048AA4213D006
:102FC0000125EA0393421FD1082E00D97FE0C046B5
:102FD0007E4436797600B744047A4C7A457A7A7A18
:102FE0004B00FEF78BFB3FE00125082E00D96EE079
:102FF0007E4436797600B744046A1D6A156A6A6AA7
:103000001B00FEF77BFB0FE0082E60D87E4436796C
:103010007600B744045C4A5C435C5C5C4900FEF7A4
:103020006DFB3DE0FEF77CFB00284FD0616A01E0BC
:103030000120C0034900324A515AFDF7E3F96268A2
:103040005743B84243D31103884240D8010E560873
:103050000002002380195941FDF792F92A494118CD
:103060002A4A2FE0FEF75CFB00282FD0616A00E0BF
:1030700010464900224A515AFDF7C4F940006168E0
:103080004A081018FDF7BEF90246103A1D498A4257
:103090001DD201400007400F084315E0FEF740FB3A
:1030A000002813D0616A00E010464900144A515AC2
:1030B000FDF7A8F961684A081018FDF7A3F9014661
:1030C0001039104A914202D22168C8600025104888
:1030D0000099086000206067A067284601B0F0BD35
:1030E000F369FFCF00800040FFF4FF11004400406F
:1030F0000038014054100240E03E00080024F40073
:10310000C83E0008F0FF000000FDFFFF00FD0F00BB
:1031100001000100F0B585B0049316460F46044641
:103120000368D9693940C91B4A424A410020B2426A
:1031300064D102902146843101910A9D01210091C0
:10314000C8020390691C0FD0FEF770F8002D14D050
:103150000499401AA84210D823681968490703D572
:10316000D9690398014225D1D9693940C91B4A421E
:103170004A41B242E6D0029840E0EFF31080009D51
:1031800085F310880D214901226813688B43136071
:1031900080F31088EFF3108085F3108821688A6827
:1031A000AA438A6080F310882020019A506010465C
:1031B00008301EE003981862EFF31080009D85F33D
:1031C00010880D214901226813688B43136080F336
:1031D0001088EFF3108085F3108821688A68AA436D
:1031E0008A6080F310882020019A50609060104619
:1031F0000C300021117020210160032005B0F0BDCA
:1032000080B500F0E3F800F035FB0D4900200860C0
:103210000C4908600C4908600C4908600C490860BA
:103220000C4908600C4908600C4908600C490860AA
:103230000C4908600C4908600C49086080BDC04614
:1032400050000020540000204C00002048000020C6
:10325000380000203400002024000020200000203E
:10326000300000202C0000204400002040000020FE
:10327000B0B5954C2068544D691C884208D0256033
:10328000FCF736FFFFF7BCFFDD480168491C016011
:1032900025600448006800F01FFD00202060FCF756
:1032A0007FFFB0BD3C000020F0B587B003930192D2
:1032B0000291044607468837109804900F980590AD
:1032C0000CAE61CE0690002D04D0EF220698294660
:1032D000FDF786F8B0212046FDF789F80198606473
:1032E0000398A0640298A062E662069AE260FE601B
:1032F00065610498A061E0612020786105988642AC
:1033000000D0002611980590E6633E612B4803210A
:103310002163A918491E21616065A46528492046DA
:10332000FCF79EFFEFF3108072B626492160364904
:103330000A68002A07D0354B1B688C269D599C5182
:103340002E46883602E0314E23462546346028C793
:10335000521C0A60AA490A68521C0A60059A012A8E
:1033600011D159490968EFF305820A43002516492E
:103370008A422E4616D3A6490E68002E10D0F56B51
:10338000F16AF1630EE080F31088EFF3108072B6FB
:103390000A68521E0A6080F3108800F099F809E06C
:1033A00000252E4680F31088204600F0ABF8002E52
:1033B00000D0F563002007B0F0BDC0461D380008FE
:1033C0001534000844524854F0F0F0F010B590481D
:1033D000002404608F4804608B4804608B482021DF
:1033E000016088488021FDF702F80748046007481B
:1033F0000460834804601648046085204004044942
:103400000A6802430A6010BD580000205C000020DA
:103410002800002010B5E6480468616CA06C88475D
:103420000B480168002901D020468847EFF310803F
:1034300072B60021E1640121A1632163DD490A68BC
:10344000521C0A6080F31088204600F0E5F810BD99
:103450006C000020B0B5EFF3108172B6EB4A14682F
:10346000002C08D0184A1268EFF30583134306D0E6
:1034700081F3108801E081F310881320B0BD134A56
:10348000944208D0002809D0F14A1368002B09D0D3
:1034900081F31088F1E781F31088EEE781F310885B
:1034A0000020B0BD8425002363510123A3630423BE
:1034B0002363E0641068401C106081F3108820468C
:1034C00000F0AAF86059B0BD08000020AC0100204F
:1034D000E7480068002800D07047CF480068CB4913
:1034E00009688142F8D001200007B4490860EFF371
:1034F00005800028F0D1EFF3108062B680F31088C9
:103500007047C046F0B581B00446EFF3108572B63F
:103510004C30616E002902D000F034FA01E0002145
:103520000160D3480168491E0160216BA26B002A2B
:1035300009D0491E02290FD3616B002908D100214F
:103540002163A16308E0002906D0616B00291DD02A
:103550000321002221636263AC49096885F3108866
:10356000AD4A126891420FD0006800280CD10120AA
:10357000000792490860EFF30580002804D1EFF3BB
:10358000108062B680F3108801B0F0BD0021216385
:10359000E26A93009E4EF158002905D04A6A1462EF
:1035A0004C6221626262D7E7F1180C6001210B4680
:1035B0009340814E37681F43376024626462954BA5
:1035C0001E68B242C8D21A60934B1E68002E15D0F6
:1035D000F66BB242C0D21C6085F3108800680028E8
:1035E000D2D1080775490860EFF305800028CBD1D8
:1035F000EFF3108062B680F31088C5E71C60ABE77C
:103600007000002074000020F400002068000020FA
:103610006400002060000020F0B581B004467B48C3
:103620000668EFF3108572B6A6420CD10220C043A3
:10363000E16C491E814203D820464C3000F07CF9F1
:10364000E069B14908608A4F3968491E3960A16B49
:10365000012900D07BE00021A163226AE36AA24233
:103660000CD0616A0A6251629900694B38465F5812
:10367000A742074667D159180A6064E09A00644F70
:10368000B950012217469F404B480368BB43036073
:1036900007D0594219400F291DD8032921D80A46BD
:1036A00020E05D4801605B482021016085F31088BF
:1036B0006F480068002800D078E010073F49086094
:1036C000EFF30580002800D070E0EFF3108062B6C1
:1036D00080F310886AE0FF290AD83F290FD8042216
:1036E0000EE08A08624F520803292AD9921C28E06A
:1036F000080C0AD1080B5E4F0FD108220EE00622FB
:103700005B4F3F2905D8052304E0080E08D110229D
:1037100007E00723D9408A1813E00C22D14008E0C3
:103720001822D1400F29E84F00D9121D0F2900D9C6
:103730000909032900D9921C032900D989084808DE
:1037400082183448026034490868A04216D085F3D4
:10375000108831480068864228D03868002825D172
:103760000120000715490860EFF3058000281DD1EE
:10377000EFF3108062B680F3108817E025480068E8
:103780008000234A1058086085F3108838680028A4
:103790000CD10120000709490860EFF305800028DB
:1037A00004D1EFF3108062B680F3108801B0F0BD51
:1037B0006000002070000020F400002004ED00E014
:1037C00010B512480168EFF3108072B6504A00231A
:1037D0001360002902D00A6B002A02D080F31088FF
:1037E00010BDCB690A6A8B61474C23608A42F5D0D1
:1037F000CB6AC96B8B42F1D19900054B5A500549F0
:10380000096889005958044A1160E7E76000002000
:1038100074000020680000206400002080B5EFF3F1
:10382000108272B6016B042908D1A7490B685B1C92
:103830000B6082F31088FFF765FE80BDAC21415814
:10384000836E82F31088002B00D0984780BDC0465D
:103850007000002080B5EFF3108072B69A490A68B4
:10386000521C0A6080F310889648FFF74BFE80BD1B
:1038700070000020F0B587B023480024046023487E
:103880000460234804608D4804608D480460214D25
:1038900080212846FCF7ABFD854805608648056019
:1038A0008035844805601C491C4808601C4AC821B2
:1038B00011601C4A146000AA13C203940494059476
:1038C000E0481949194A794BFFF7EEFC002815D05A
:1038D000DC4D154E154F1048006811490968114A12
:1038E000126800AB07C3039204940594284631463E
:1038F0003A466E4BFFF7D8FC0028ECD10C48046028
:103900000C48046007B0F0BD24030020A80100208B
:103910000C01002014010020A40100205C02002002
:10392000A00100209C010020003F0008B1390008E0
:10393000FC000020000100200268511E0223DB432E
:10394000994202D88369002B00D07047202A00D901
:103950001F218900564A12685118564A12688A1A5D
:1039600002D35549096889180A68002A05D05369A5
:10397000186150610261436102E0006140610860CA
:10398000816170478169002911D00269824207D0A4
:1039900043691A6153610B68834206D1916103E068
:1039A0000A68824201D100220A60002181617047C9
:1039B000F0B583B03D49884200D075E03C4D404CA5
:1039C000EFF3108072B629680A680292002A01D0CB
:1039D00002AB936100270F602968091D2960354AF1
:1039E0001268914202D134490968296033490F6055
:1039F00080F31088EFF3108172B6029D002D3CD049
:103A00000197286985423A4605D002AA82616A690F
:103A100010614261024602922868212809D301AA56
:103A2000AA612560203828602D61019581F31088F6
:103A300011E06B68AA68E8682B60002B03D0019541
:103A40002D6101AB00E000232560AB6181F310889C
:103A5000002A00D09047EFF3108672B60020206055
:103A60000199A94203D1A8612846FFF765FF86F3B3
:103A70001088EFF3108172B6BFE710480068002885
:103A800003D081F310880A4D9AE701226D488263C2
:103A900003220263664B1A68521C1A6081F3108875
:103AA000FFF7BAFD024D8BE703B0F0BD4D4954411D
:103AB000040100209401002098010020080100204A
:103AC00010010020AC01002070000020F0B58DB086
:103AD0000E240A940C90002860D01898B0285DD16C
:103AE000069109920793139A129FEFF3108072B612
:103AF0004F4B1968491C196080F310884D480568C0
:103B00004D480168002908922ED0D019421E00208D
:103B100001230B93431E584258410C9B9D420B9B23
:103B200000D00346002B1FD1EC68A74201D2002031
:103B300008E02B6900269F4201D3304600E00120B7
:103B40009F4200D33E46A24201D2374608E02B698D
:103B50009A4201D3374600E000279A4200D2012062
:103B60008823ED58491ED5D1EFF3108072B6304A44
:103B70001168491E116080F31088FFF7A9FC0C98AA
:103B8000854209990A980AD00320002907D0002FFE
:103B900005D0089AC82A04D2052000E00A980DB082
:103BA000F0BD14991F2901D90F20F8E71598884214
:103BB00001D91820F3E7179B012B01D91020EEE75C
:103BC0000A930B901D4B1B681D4C2568EFF305866F
:103BD0002E430DD01B4D5D1B6B426B412468EFF3F0
:103BE00005852543184CA54209D31546002408E055
:103BF0001546144CA342099A0BD11320CFE7154662
:103C00000124099A1C4301D1204600E01320002C16
:103C1000C5D1169B0097019502910B9803900493D0
:103C20000A9805900C980699079BFFF73DFBB6E7AD
:103C3000700000205C000020580000206000002080
:103C400008000020AC010020F0F0F0F080B582B058
:103C50000190044801A90122034BFEF7BBFC019827
:103C600002B080BD78050020FFFF0000044CC82092
:103C7000FFF7F0FB40212046FDF7C8FAF7E7C04602
:103C800000080050FDF7E2FAFEF7BFFEFEF78AFDDE
:103C9000FEF770FDFEF70CFDFEF762FEFEF796FEE6
:103CA000FEF7E8FDFEF70AFE074C2046FEF7CCF8CB
:103CB00000212046FEF7FEFA044805490422FDF7DC
:103CC00041F8FEF749FEFEE7980400202803002093
:103CD00018000020FEE70000F0B587B0B02506957B
:103CE000012605960024049403960296C82701979E
:103CF0000C4800900C480DA10F4A2346FFF7E6FE42
:103D000006950596049402200390029001970B48B3
:103D100000900B480BA10F4A2346FFF7D7FE07B0D0
:103D2000F0BDC046BC0600200C0600206C65642077
:103D300074687265616400006D3C000834080020FE
:103D4000840700207072696E746620746872656101
:103D500064000000D53C00080FB410B503A9044B63
:103D6000044A029800F017F810BC08BC04B01847C9
:103D70004D3C00080000002002E008C8121F08C1E6
:103D8000002AFAD170477047002001E001C1121FDC
:103D9000002AFBD17047FFB581B00546002706E039
:103DA00025280AD0049A039990476D1C7F1C287817
:103DB0000028F5D1384605B0F0BD002269786D1CA9
:103DC00010462E2913D1697804226D1C2A2909D1A5
:103DD00002996D1C01C9029109E00A235843303849
:103DE00008186D1C29780B46303B092BF5D92B7828
:103DF000002BDFD0632B07D0732B10D0049A18460A
:103E0000039990477F1C2DE002996C460B78237034
:103E1000091D0291002161706E46012104E00299A2
:103E200040C902910021C94352070AD5002400E08D
:103E3000641C84420DDA8C42FADB325D002AF7D131
:103E400007E0002400E0641C8C42FCDB305D0028AD
:103E5000F9D13F1904E03078049A761C0399904711
:103E6000641EF8D26D1CA2E70000000000000000F4
:103E70000000000000000000000000000000000042
:103E8000000000000000000001000000020000002F
:103E9000030000000400000006000000070000000E
:103EA0000800000009000000000000000000000001
:103EB00000000000000000000100000002000000FF
:103EC00003000000040000000100020004000600DE
:103ED00008000A000C0010002000400080000001D3
:103EE00000000000040000000200000008000000C4
:103EF0000101010307010000080402040801010197
:103F000053797374656D2054696D657220546872BD
:103F100065616400383F00080000002018000000C0
:103F2000783D0008503F000818000020E80A000013
:103F3000883D000800000000000000000024F4009C
:103F4000F0F0F0F0010000000400000000000000AC
:04000005080000C12E
:00000001FF
